{
  "contractName": "vendingMachine",
  "abi": [
    {
      "inputs": [],
      "stateMutability": "nonpayable",
      "type": "constructor"
    },
    {
      "inputs": [],
      "name": "owner",
      "outputs": [
        {
          "internalType": "address",
          "name": "",
          "type": "address"
        }
      ],
      "stateMutability": "view",
      "type": "function"
    },
    {
      "inputs": [
        {
          "internalType": "address",
          "name": "",
          "type": "address"
        }
      ],
      "name": "snackInventory",
      "outputs": [
        {
          "internalType": "uint256",
          "name": "",
          "type": "uint256"
        }
      ],
      "stateMutability": "view",
      "type": "function"
    },
    {
      "inputs": [],
      "name": "getSnackInventory",
      "outputs": [
        {
          "internalType": "uint256",
          "name": "",
          "type": "uint256"
        }
      ],
      "stateMutability": "view",
      "type": "function"
    },
    {
      "inputs": [
        {
          "internalType": "uint256",
          "name": "amount",
          "type": "uint256"
        }
      ],
      "name": "restock",
      "outputs": [],
      "stateMutability": "nonpayable",
      "type": "function"
    },
    {
      "inputs": [
        {
          "internalType": "uint256",
          "name": "amount",
          "type": "uint256"
        }
      ],
      "name": "purchase",
      "outputs": [],
      "stateMutability": "payable",
      "type": "function"
    }
  ],
  "bytecode": "0x608060405234801561001057600080fd5b50336000806101000a81548173ffffffffffffffffffffffffffffffffffffffff021916908373ffffffffffffffffffffffffffffffffffffffff1602179055506064600160003073ffffffffffffffffffffffffffffffffffffffff1673ffffffffffffffffffffffffffffffffffffffff16815260200190815260200160002081905550610849806100a56000396000f3fe60806040526004361061004a5760003560e01c80633a01c9901461004f5780633aba595f1461008c5780638da5cb5b146100b7578063c21a702a146100e2578063efef39a11461010b575b600080fd5b34801561005b57600080fd5b506100766004803603810190610071919061047b565b610127565b60405161008391906104c1565b60405180910390f35b34801561009857600080fd5b506100a161013f565b6040516100ae91906104c1565b60405180910390f35b3480156100c357600080fd5b506100cc610186565b6040516100d991906104eb565b60405180910390f35b3480156100ee57600080fd5b5061010960048036038101906101049190610532565b6101aa565b005b61012560048036038101906101209190610532565b610291565b005b60016020528060005260406000206000915090505481565b6000600160003073ffffffffffffffffffffffffffffffffffffffff1673ffffffffffffffffffffffffffffffffffffffff16815260200190815260200160002054905090565b60008054906101000a900473ffffffffffffffffffffffffffffffffffffffff1681565b60008054906101000a900473ffffffffffffffffffffffffffffffffffffffff1673ffffffffffffffffffffffffffffffffffffffff163373ffffffffffffffffffffffffffffffffffffffff1614610238576040517f08c379a000000000000000000000000000000000000000000000000000000000815260040161022f906105bc565b60405180910390fd5b80600160003073ffffffffffffffffffffffffffffffffffffffff1673ffffffffffffffffffffffffffffffffffffffff1681526020019081526020016000206000828254610287919061060b565b9250508190555050565b6706f05b59d3b20000816102a59190610661565b3410156102e7576040517f08c379a00000000000000000000000000000000000000000000000000000000081526004016102de9061072d565b60405180910390fd5b80600160003073ffffffffffffffffffffffffffffffffffffffff1673ffffffffffffffffffffffffffffffffffffffff168152602001908152602001600020541015610369576040517f08c379a0000000000000000000000000000000000000000000000000000000008152600401610360906107bf565b60405180910390fd5b80600160003073ffffffffffffffffffffffffffffffffffffffff1673ffffffffffffffffffffffffffffffffffffffff16815260200190815260200160002060008282546103b891906107df565b9250508190555080600160003373ffffffffffffffffffffffffffffffffffffffff1673ffffffffffffffffffffffffffffffffffffffff168152602001908152602001600020600082825461040e919061060b565b9250508190555050565b600080fd5b600073ffffffffffffffffffffffffffffffffffffffff82169050919050565b60006104488261041d565b9050919050565b6104588161043d565b811461046357600080fd5b50565b6000813590506104758161044f565b92915050565b60006020828403121561049157610490610418565b5b600061049f84828501610466565b91505092915050565b6000819050919050565b6104bb816104a8565b82525050565b60006020820190506104d660008301846104b2565b92915050565b6104e58161043d565b82525050565b600060208201905061050060008301846104dc565b92915050565b61050f816104a8565b811461051a57600080fd5b50565b60008135905061052c81610506565b92915050565b60006020828403121561054857610547610418565b5b60006105568482850161051d565b91505092915050565b600082825260208201905092915050565b7f4f6e6c79206f776e65722063616e20726573746f636b00000000000000000000600082015250565b60006105a660168361055f565b91506105b182610570565b602082019050919050565b600060208201905081810360008301526105d581610599565b9050919050565b7f4e487b7100000000000000000000000000000000000000000000000000000000600052601160045260246000fd5b6000610616826104a8565b9150610621836104a8565b9250827fffffffffffffffffffffffffffffffffffffffffffffffffffffffffffffffff03821115610656576106556105dc565b5b828201905092915050565b600061066c826104a8565b9150610677836104a8565b9250817fffffffffffffffffffffffffffffffffffffffffffffffffffffffffffffffff04831182151516156106b0576106af6105dc565b5b828202905092915050565b7f596f75206d75737420706179206174206c656173742024302e3520657468657260008201527f2070657220736e61636b00000000000000000000000000000000000000000000602082015250565b6000610717602a8361055f565b9150610722826106bb565b604082019050919050565b600060208201905081810360008301526107468161070a565b9050919050565b7f4e6f7420656e6f75676820736e61636b20696e2073746f636b20746f2066756c60008201527f6c66696c6c000000000000000000000000000000000000000000000000000000602082015250565b60006107a960258361055f565b91506107b48261074d565b604082019050919050565b600060208201905081810360008301526107d88161079c565b9050919050565b60006107ea826104a8565b91506107f5836104a8565b925082821015610808576108076105dc565b5b82820390509291505056fea2646970667358221220678b59070204077e372c2a9ed147e44dd5e09ff6fa27b8b3240b70acceb6cbe264736f6c634300080b0033",
  "immutableReferences": {},
  "source": "// SPDX-License-Identifier: MIT\r\npragma solidity >=0.7.0 <0.9.0;\r\n\r\ncontract vendingMachine{\r\n    address public owner;\r\n    mapping (address => uint) public snackInventory;\r\n    constructor (){\r\n        owner = msg.sender;\r\n        snackInventory[address(this)] = 100;\r\n    }\r\n\r\n    function getSnackInventory() public view returns (uint){\r\n        return snackInventory[address(this)];\r\n    }\r\n\r\n    function restock(uint amount) public {\r\n        require(msg.sender == owner, \"Only owner can restock\");\r\n        snackInventory[address(this)] += amount;\r\n    }\r\n\r\n    function purchase(uint amount) public payable {\r\n        require(msg.value >= amount * 0.5 ether, \"You must pay at least $0.5 ether per snack\");\r\n        require(snackInventory[address(this)] >= amount, \"Not enough snack in stock to fullfill\");\r\n        snackInventory[address(this)] -= amount;\r\n        snackInventory[msg.sender] += amount;\r\n    }\r\n}",
  "sourcePath": "C:\\Users\\LENOVO\\Desktop\\DApp\\vending-machine\\vending-machine\\contracts\\VendingMachine.sol",
  "compiler": {
    "name": "solc",
    "version": "0.8.11+commit.d7f03943.Emscripten.clang"
  },
  "schemaVersion": "3.4.4",
  "updatedAt": "2022-04-25T09:48:11.733Z",
  "devdoc": {
    "kind": "dev",
    "methods": {},
    "version": 1
  },
  "userdoc": {
    "kind": "user",
    "methods": {},
    "version": 1
  }
}